:1000000000000420B1040000F1040000F30400002B
:10001000F5040000F7040000F904000000000000EF
:10002000000000000000000000000000FB040000D1
:10003000FD04000000000000FF04000001050000B6
:100040000505000041320000090500000B05000015
:100050000D0500000F05000011050000130500004C
:100060008D32000017050000190500001B05000077
:100070001D0500001F0500002105000023050000EC
:100080002505000027050000290500002B050000BC
:100090002D0500002F05000031050000330500008C
:1000A0003505000037050000390500003B0500005C
:1000B0003D0500003F0500000305000003050000AA
:1000C000410500004305000045050000470500000C
:1000D000490500004B0500004D0500004F050000DC
:1000E00051050000530500005505000057050000AC
:0800F0000305000059050000A2
:1000F8004FF08053D3F83031082B1CD08A4AD2F8FD
:10010800883043F47003C2F88830BFF34F8FBFF3D1
:100118006F8F4FF01023D3F80032002BC0F2D1803C
:100128004FF01023D3F80432002BC0F2CA807F4B63
:100138007F4A1A6070474FF08053D3F8343173B94F
:100148004FF080430022C3F80C21C3F81021C3F8F4
:1001580038254FF08053D3F83031082BCED14FF0EB
:100168008053D3F83431002B4BD14FF08053D3F860
:100178000414704AC2F82015D3F80814C2F82415DC
:10018800D3F80C14C2F82815D3F81014C2F82C159B
:10019800D3F81414C2F83015D3F81814C2F834156B
:1001A800D3F81C14C2F84015D3F82014C2F844152B
:1001B800D3F82414C2F84815D3F82814C2F84C15FB
:1001C800D3F82C14C2F85015D3F83014C2F85415CB
:1001D800D3F83414C2F86015D3F83814C2F864158B
:1001E800D3F83C14C2F86815D3F84014C2F86C155B
:1001F800D3F84414C2F87015D3F83031082B7FF4C3
:100208007DAF4FF08053D3F8343153B94A4B4B4A42
:10021800C3F88C264FF08053D3F83031082B7FF485
:100228006DAF4FF08053D3F8343153B9444BFB22B0
:10023800C3F818254FF08053D3F83031082B7FF4DA
:100248005DAF4FF08053D3F834319BB94FF0804005
:10025800D0F8E42E4FF08051D1F8583203F00F0354
:1002680022F00F021343C0F8E43ED1F83031082BD6
:100278007FF444AF4FF08053D3F834315BB9314B3E
:100288004FF40072C3F840264FF08053D3F8303152
:10029800082B7FF433AF4FF08053D3F83431002B61
:1002A8007FF42CAF4FF08043D3F8003413F0010FE4
:1002B8003FF424AF4FF080436FF00102C3F80024ED
:1002C8001CE7214B0122C3F804251A46D2F8003452
:1002D800002BFBD04FF010231222C3F800221A4A39
:1002E800D2F80034002BFBD04FF010231222C3F8B1
:1002F8000422154AD2F80034002BFBD0124B0022FE
:10030800C3F804251A46D2F80034002BFBD0BFF3FB
:100318004F8F0549CA6802F4E0620C4B1343CB6067
:10032800BFF34F8F00BFFDE700ED00E000000020A5
:100338000090D00300C000400050004048810300F6
:1003480000F000400090024000E001400400FA057F
:10035800354936480A1A02D0072291438D46344956
:1003680034480A1A06D00722914381F309880222E9
:1003780082F3148830483149314A00F043F8314853
:100388003149324A00F03EF831483249324A00F0E9
:1003980039F832483249334A00F034F832483349A0
:1003A800334A00F02FF833483349344A00F02AF82A
:1003B80033483449344A00F025F834483449002297
:1003C80000F02BF833483449002200F026F833486F
:1003D8003349091A082903DB00220260043001604E
:1003E8001F482049884205D00268043003B490476A
:1003F80003BCF7E700208646EC4600200021294A86
:100408009047FEE7884207D0521A05D0037801309A
:100418000B700131013AF9D17047884202D002705D
:100428000130FAE7704700000000042000FF0320B5
:100438000000042000000420E05500000000002017
:100448006A0000205C0500005C05000070470000A1
:10045800E055000000000020000000207047000068
:1004680070470000704700007047000070470000A8
:10047800704700007047000070470000DF5500001B
:100488004C56000030030020300300206C00002090
:100498003003002030030020300300203003002008
:1004A800300400205D0500000A484FF0070188432A
:1004B8008546094880470948094901600948016893
:1004C80041F470010160BFF34F8FBFF36F8FFFF7E7
:1004D8003FBF000000000420F900000008ED00E024
:1004E8000000000088ED00E0FEE7FEE7FEE7FEE71B
:1004F800FEE7FEE7FEE7FEE7FEE7FEE7FEE7FEE7CC
:10050800FEE7FEE7FEE7FEE7FEE7FEE7FEE7FEE7BB
:10051800FEE7FEE7FEE7FEE7FEE7FEE7FEE7FEE7AB
:10052800FEE7FEE7FEE7FEE7FEE7FEE7FEE7FEE79B
:10053800FEE7FEE7FEE7FEE7FEE7FEE7FEE7FEE78B
:10054800FEE7FEE7FEE7FEE7FEE7FEE7FEE7FEE77B
:04055800FEE700BFFB
:10055C002DE9F04F89B000F0A7FB62B6B14C012534
:10056C00C4F80853C4F8045525604FF0E0234FF04D
:10057C00FF325A6100279F6105221A61284600F05C
:10058C00E9FA082000F032FA00F076FA1A2000F0AE
:10059C007BFAA54803F024FDA44E02213180A44827
:1005AC0003F0FCFC6560D4F808453288A14B1D644F
:1005BC00D3F84035E4B202FB04F49BB203FB04F421
:1005CC0021469D4803F0EAFC204602F013FB9B4BAE
:1005DC001F703188A94208D0022900F0AA8102229A
:1005EC001A70974803F0DAFCFEE70022A4E101340C
:1005FC00082C0DD08DF8184018F8012F8B4B1B8848
:10060C009A42F4D14A4606A9204600F0C1FDEEE715
:10061C00864C23888B4A1268012A0CBF02200020CA
:10062C00012B08BF40F0010000F020FE2388012BB5
:10063C0004BF05F5BB3505F58075824B19688248FA
:10064C0003F0ACFC3764D6F840355B1B002BF9DBB0
:10065C0000F05EFE05463764D6F840355B1B002B78
:10066C00F9DB4FF001080024DFF80892DFF808A24C
:10067C00204600F075FF0346D0B1B0F1FF3F1CD00F
:10068C00006806909A889B79ADF81C208DF81E3076
:10069C009DF81830A34215D06C4A136801331360CF
:1006AC00DCB1B8F1070F3DD8013408F10108DFE7E0
:1006BC00674A136801331360F3E7664A1368013322
:1006CC001360EEE79DF81A20634BE35C9A42E3D18A
:1006DC00624A136801331360E2E79DF81B3063F341
:1006EC00070B9DF81C3063F30F2B9DF81D3063F343
:1006FC00174B9DF81E3063F31F6B524B1A68012A7F
:10070C0009D05A45D0D05946484603F047FC00233F
:10071C004C4A1360C8E7C3F800B05946504603F082
:10072C003DFCC1E700F052FE0024A046404600F01C
:10073C0065FF0028A8BF013408F10108B8F1080FC3
:10074C00F4D13A4B1988464803F028FCDFF80C81A9
:10075C003E4A13680293DFF8FC90D9F800300193FD
:10076C00DFF8ECA0DAF800300093D8F8003022461D
:10077C00344909683B4803F011FC0024C8F80040D8
:10078C00CAF80040C9F80040304A1460274B198859
:10079C00334803F003FC344803F000FCDFF8DCA022
:1007AC0028E008F10108B8F1080F0FD0404600F01E
:1007BC0025FFA042F5D3404600F020FF80B248450B
:1007CC00EFD2404600F01AFF8146EAE7B9F1FF3F4D
:1007DC0015D0002402E00134082C09D0204600F08A
:1007EC000DFF4845F7D14946504603F0D7FBF2E7D9
:1007FC0009F101044FF0FF394FF00008D6E71B4810
:10080C0003F0EEFB094B1988154803F0C7FB184899
:10081C0003F0C4FB4FF0000ACDF81490DFF85C90A5
:10082C0055E000BF00D000407047000004000020DD
:10083C00A847000000800040C04700007C0000205A
:10084C00E04700008000002058480000780000209D
:10085C0070000020740000202C4900006C00002067
:10086C00C8480000D448000008490000B4530000F8
:10087C001C4900008C48000070480000184900001A
:10088C000134082C0FD0204600F0B8FE5045F7D3A9
:10089C00204600F0B3FE80B24045F1D2204600F075
:1008AC00ADFE8046ECE7B8F1FF3F14D0002402E027
:1008BC000134082C09D0204600F0A0FE4045F7D1A9
:1008CC002146484603F06AFBF2E708F1010ADDF81D
:1008DC0014800024D7E7204803F082FB05F574054B
:1008EC0005F510551D4A1368013313601B4B19682D
:1008FC001B4803F053FB1B4C207800F01DFB2378A6
:10090C008DF81930184A13888DF81A30134B1B6860
:10091C008DF81B301A0A8DF81C201A0C8DF81D202E
:10092C001B0E8DF81E30DFF84C8000244FF00709A9
:10093C0060E601220B4B1A700C4803F02FFB00F001
:10094C0079FB0B4A01231364D2F84055034A136018
:10095C00074E1F46CAE700BFB453000080000020BA
:10096C00404800007C0000200400002014480000D7
:10097C00008000402B490000FEE700F091BA000017
:10098C00094B01221A64D3F840354FF47A5202FB1A
:10099C000030054A01211164D2F840351B1AFAD4F3
:1009AC00002BF8D0704700BF008000400E4BD3F8EE
:1009BC00103503F00F03033B0C2B10D8DFE803F0CA
:1009CC001107090B0F0F0F0F0F0F0F0F0D00032047
:1009DC0070470420704705207047012070470020A5
:1009EC0070470220704700BF0010004010B4082868
:1009FC00A8BF08206FF027039842B8BF184600F133
:100A0C0030031B4CC3F1200110301A4ADA4004FAAF
:100A1C0001F10A4324FA00F0024312F0010F1CD139
:100A2C004FF0FF30A3F12004C3F1200100FA03F2D0
:100A3C0000FA04F4224320FA01F10A4300FA03F30A
:100A4C000B490C4820EA030031EA02020AD0B2FA40
:100A5C0082F2C2F11F0202F12003A3F130005DF813
:100A6C00044B7047B0FA80F3C3F11F03F5E700BFE6
:100A7C001111FD0100010010C0B2024BC3F80C05AE
:100A8C00704700BF0010004010B50446FFF78EFF02
:100A9C0001281DD0831EDBB2032B48D8272C30D85D
:100AAC00262C33D8DFE804F0363636363636363672
:100ABC003636363E3E3E3E3E3E3E3E3E3E3E3E3E62
:100ACC003E3E3E3E3E3E3E3E3E3E3E3E3E4134007F
:100ADC000A2C0AD91A2C0ED804EB8404323C04F0EC
:100AEC007F04164BC3F808451BE0AF221449154888
:100AFC00FFF742FFF0E7B02211491348FFF73CFF24
:100B0C00EAE7BE220E491148FFF736FF502203E0F8
:100B1C001A2201E0A21C5200084BC3F80825C3F8A6
:100B2C00544510BDE21C5200F6E70222F4E7D8222D
:100B3C0003490748FFF720FFF3E700BF0010004010
:100B4C00344900008049000090490000A049000091
:100B5C00B049000070B504464B4D0026C5F8FC6F3B
:100B6C000120FFF70DFF0120C5F8FC0FFFF708FF70
:100B7C00C5F800624FF0FF33C5F80833012C0AD0DA
:100B8C00A31EDBB2032B78D8023C032C6ED8DFE813
:100B9C0004F020525B643C4C0F23C4F810353B4BE3
:100BAC00C4F814357F23C4F8183540F20223C4F876
:100BBC003435374BC4F838350025C4F83C5540F271
:100BCC000123C4F850360B20FFF75EFFC4F80C5518
:100BDC0030E02D4B0322C3F810250022C3F8142556
:100BEC00294CD4F8143543F48473C4F81435294BC8
:100BFC00C4F8183540F20313C4F8343540F25B6383
:100C0C00C4F83835244BC4F83C3540F20123C4F801
:100C1C0050360025C4F82C550123C4F83035252056
:100C2C00FFF732FFC4F80C551C4BC4F81C358E234F
:100C3C00C4F8243570BD144B0422C3F810254FF0B2
:100C4C008072C3F81425CBE70F4B0522C3F810258F
:100C5C004FF0C742C3F81425C2E70B4B0622C3F86A
:100C6C0010254FF0C742C3F81425B9E740F25512CE
:100C7C000B490C48FFF780FEB2E740F2831208499B
:100C8C000848FFF779FED5E7001000400800000681
:100C9C0021100100FF0003025555550000D6BE89F6
:100CAC0034490000B049000030B472B6002282F31F
:100CBC00118882F3138882F31488BFF34F8FBFF32C
:100CCC006F8F6A4BC3F894200121694BC3F8401510
:100CDC004FF080434FF0FF30C3F80803C3F81025E2
:100CEC00C3F87815C3F880254FF6FF71130103F193
:100CFC008043C3F800190132092AF7D100235D4A59
:100D0C00C2F800354FF08042012151604FF0A04CE9
:100D1C000621594803F5E0724CF8221040F82210D5
:100D2C000133202BF6D14FF0A0430222C3F8002749
:100D3C00C3F804272022C3F808250C22C3F8142773
:100D4C004025C3F808550324C3F81847C3F82027D7
:100D5C00C3F82C27C3F830274FF4F031C3F808152B
:100D6C0040F20371C3F83417C3F83817C3F83C17B3
:100D7C00C3F840174FF40031C3F80815C3F84447C3
:100D8C00C3F84827C3F84C27C3F85027C3F8542797
:100D9C00C3F85827C3F85C27C3F86027C3F8642747
:100DAC00C3F86827C3F86C274FF0804101234B60D0
:100DBC00CB604FF0FF30C1F80803C1F81835C1F80B
:100DCC0028550022C1F800210B60C1F804218B606A
:100DDC0001F500414B6000BF00BF00BF00BFC1F870
:100DEC000022C1F80803C1F80425C1F80845C1F870
:100DFC0010250B6001F540514B60C1F80803C1F898
:100E0C004033C1F808250B601C4BC3F800254FF08C
:100E1C000041C3F80815C3F810150621C3F80C15CA
:100E2C000821C3F81415C3F86C251548C3F824051C
:100E3C00C3F80023C3F800154FF08042D2F80031FC
:100E4C00002BFBD0D2F80431002BF7D00D4B002235
:100E5C00C3F800211A46D2F80031002BFBD0094B05
:100E6C000122C3F8482330BC704700BF00ED00E0FE
:100E7C0000E0014000F00140000300500020004061
:100E8C0000E0D70100B0004072B6044B01221A609A
:100E9C0030BF002383F31088704700BF840000200C
:100EAC0070B582B004460A2803BF0D238DF80430B8
:100EBC00012300235E1C08336B4403F8040C1B4B0A
:100ECC000022C3F8502101AD05F16043B3F5802F2A
:100EDC0025D2164BC3F84455C3F84865BFF35F8F52
:100EEC00D3F8503143B1114B0022C3F850211A46AC
:100EFC00D2F82031002BFBD00C4B0022C3F8202160
:100F0C0001229A601A46D2F85031002BFBD0074AC6
:100F1C00D2F82031002BFBD0204602B070BD6622E7
:100F2C0003490448FFF728FDD3E700BF0020004029
:100F3C00B4490000004A000070B501286BD8064681
:100F4C0002F034FE374C0025C4F88050C4F88450AD
:100F5C00C4F8885084F8926084F8935094F8A830C0
:100F6C0065F3C71384F8A830C4F8AC50C4F8B0507B
:100F7C004FF6FF76A4F8C460A4F8DC60A4F8F46023
:100F8C00A4F80C61A4F82461A4F83C61A4F85461A1
:100F9C00A4F86C61A4F8845104F5C273C4F88C31C4
:100FAC00A4F89051A4F8B450C4F8B8503C22294687
:100FBC0004F5FC7003F06BF81B4B1D805D809D806D
:100FCC0000F098FBA4F8BC51A4F8BE612C22294671
:100FDC0004F5E47003F05BF818224FF00043194657
:100FEC005B10013AFBD121F00101C9430D4CC4F84F
:100FFC00F411C4F8E811C4F8EC11002584F8C051C0
:10100C0084F8C15100F034FC84F8C451A4F83C526B
:10101C00C4F8385204E08C2204490548FFF7ACFCB4
:10102C0070BD00BF88000020D80200203C4B00009F
:10103C00744B000010B53D4C08223D49204602F08F
:10104C00ADFF09223B49204602F0A8FF19223A497C
:10105C00204602F0A3FF02223849204602F09EFFF0
:10106C0008223749204602F099FF102235492046C4
:10107C0002F094FF4FF4FA423349204602F08EFFFF
:10108C00324A3349204602F089FF32223149204648
:10109C0002F084FF01223049204602F07FFF4FF41A
:1010AC0000422E49204602F079FF00222C492046AE
:1010BC0002F074FF4FF47A522A49204602F06EFF78
:1010CC0010222949204602F069FF012227492046B7
:1010DC0002F064FF03222649204602F05FFF012242
:1010EC002449204602F05AFF02222349204602F0EE
:1010FC0055FF01222149204602F050FF02222049CF
:10110C00204602F04BFF01221E49204602F046FF0A
:10111C0001221D49204602F041FF08221B492046AE
:10112C0002F03CFF02F08CFD10BD00BF7C4C0000B7
:10113C005C4C0000884C0000A44C0000C44C000027
:10114C00D44C0000E84C0000F84C00000024F400E3
:10115C00084D00001C4D00002C4D00003C4D0000C3
:10116C005C4D0000784D0000944D0000B04D000027
:10117C00C44D0000E44D0000F04D0000084E00008E
:10118C001C4E0000344E00004C4E0000584E000027
:10119C00F8B507284AD8044600294FD0102A28BF92
:1011AC001022154604EB4406F6002C4F06F1C9003C
:1011BC00384402F043FF06F1C802BB185978597441
:1011CC0099789974D978D9740020B850B91904F069
:1011DC000703012202FA03F381F8C830A1F8C40016
:1011EC00B7F884311344A7F88431D7F8B0306BB317
:1011FC001A4BC4361E44D3F88C31B34284BF174B00
:10120C00C3F88C6104F01F04012303FA04F4134B9C
:10121C00D3F8E82122EA0402C3F8E821D3F8EC2140
:10122C0022EA0404C3F8EC412846F8BD40F24B1204
:10123C000B490C48FFF7A0FB0025F5E74FF4A8720B
:10124C0007490948FFF798FB0025EDE7034A06F12B
:10125C00C4031344C2F8B030CAE700BF88000020B2
:10126C003C4B0000684E0000844F000010B5044653
:10127C00234B0022C3F88821B3F88431072B09D8FB
:10128C00204B4FF6FF711A888A422ED0183B13F16F
:10129C00180FF8D114F0010F19D0194BD3F8B03046
:1012AC003BB3174AD2F88C310433C2F8AC30114638
:1012BC0002F5C27CD1F88C2102F11803C1F88C31F3
:1012CC00634502D2138B002BF4D102F02FFD01F0F9
:1012DC00F7FB00F083FB01F06BF914F0020F03D065
:1012EC00074B0022A3F8C02010BD054AC2F8883174
:1012FC00D0E740F29B1204490448FFF73DFBD0E7CE
:10130C0088000020F40100203C4B0000904F0000AE
:10131C002DE9F04102F018FD0A25294E0127DFF8CE
:10132C00A88004E000F05AFB012833D93D46D6F8DA
:10133C00B8302B405C421C40022CF3D0082C0BD054
:10134C0001F036F930BB012C0BD072B6D6F8B830A0
:10135C002B4211D062B6EAE701F0B2FB0128E5D8C6
:10136C0018E0174BD3F8B83013F0200F14D0144BEF
:10137C003222A3F8B4200FE0C8F84070D8F84045EA
:10138C00FFF782FDD6F83432D6F8302213441B1BFB
:10139C00C6F83032002DCAD1094BB3F88431072B73
:1013AC0008D8084B00221A801C46204600F0CAFFC1
:1013BC000128FAD9024BD3F8BC00BDE8F08100BF7C
:1013CC0088000020D80200200080004010B547485B
:1013DC0002F006FE464CB4F8F811464802F0DEFD69
:1013EC00B4F8FA11444802F0D9FDB4F8FC114348A2
:1013FC0002F0D4FDB4F8FE11414802F0CFFDB4F870
:10140C000012404802F0CAFDB4F802123E4802F045
:10141C00C5FDB4F804123D4802F0C0FDB4F8061244
:10142C003B4802F0BBFDB4F808123A4802F0B6FD96
:10143C00B4F80A12384802F0B1FDB4F80C1237486F
:10144C0002F0ACFDB4F80E12354802F0A7FDB4F86A
:10145C001012344802F0A2FDB4F81212324802F015
:10146C009DFDB4F81412314802F098FDB4F8161230
:10147C002F4802F093FDB4F818122E4802F08EFD9E
:10148C00B4F81A122C4802F089FDB4F81C122B483F
:10149C0002F084FDB4F81E12294802F07FFDB4F866
:1014AC002012284802F07AFDB4F82212264802F0E5
:1014BC0075FDB4F82412254802F070FDB4F826121C
:1014CC00234802F06BFDB4F82812224802F066FDA6
:1014DC00D4F82C120909204802F060FDD4F830121F
:1014EC0009091E4802F05AFD10BD00BFA84F0000AC
:1014FC0088000020B44F0000C44F0000D84F0000FB
:10150C00E84F000008500000245000003850000044
:10151C004C500000605000007850000090500000CB
:10152C00A4500000B8500000D0500000E85000005B
:10153C00FC50000018510000345100005C510000B8
:10154C00785100008C510000A0510000B0510000F7
:10155C00CC510000E4510000F85100001052000082
:10156C002DE9F047072835D8044600EB40031F4A05
:10157C0002EBC303B3F8C4204FF6FF739A4233D087
:10158C0004F0070301259D40EDB2184E04EB44090D
:10159C0006EBC90999F8C8306B4089F8C83004EBE0
:1015AC0044004FEAC00808F1C8073744384601F038
:1015BC00EFFB99F8C8305D4089F8C850002811DA63
:1015CC007B787B74BB78BB74FB78FB740848404415
:1015DC00BDE8F08740F26A2206490748FFF7CCF9CC
:1015EC000020F5E70020F3E70020F1E78800002059
:1015FC00510100203C4B0000684E000008B5072844
:10160C0007D800EB4000074B03EBC000B0F9C40057
:10161C0008BD40F2892204490448FFF7ADF94FF0A8
:10162C00FF30F5E7880000203C4B0000684E0000BE
:10163C0000B5124BA1EB030CCCF3C70C91F800E0F6
:10164C00A3F5CA7300F1320203EBC20282F804E084
:10165C0082F805C0C0B291F800E003EBCE0383F82A
:10166C0095010870ACF1020C93796CF30103937142
:10167C004B8801334B805DF804FB00BF1C0200203B
:10168C0038B50446012821D8164A02EBC40393F856
:10169C00963103F003039D1C02EBC302B2F8A63192
:1016AC00D3B1104B323403EBC4042179627903EBD0
:1016BC00C10080F8952103EBC20282F894113235F7
:1016CC0003EBC503DA88013ADA8038BD6C2206498F
:1016DC000648FFF751F9D7E7702203490448FFF792
:1016EC004BF9DEE7880000202C5200006C52000001
:1016FC00845200001A4B012083F895010022A3F8B4
:10170C0096214FF0000162F3010183F89611C3F8A2
:10171C00982183F89C21A3F89E214FF0000162F3DD
:10172C00010183F89E11C3F8A021022183F89411C2
:10173C0083F89D1183F8A52183F8A401A3F8A611C1
:10174C00032183F8AD1183F8AC11A3F8AE21042169
:10175C0083F8B51183F8B411A3F8B621704700BF14
:10176C008800002010B504463230154B03EBC00343
:10177C00D88862F38F00D88011F0800F07D12046F3
:10178C00FFF77EFF0F492046FFF752FF10BDCBB28B
:10179C000B4A012182F8C11103F08D03812B07D074
:1017AC002046FFF76DFF08492046FFF741FFEDE7A4
:1017BC002046FFF765FF05492046FFF739FFE5E7AF
:1017CC0088000020340200203C0200202C02002063
:1017DC002DE9F041254BB3F8B450ADB2AD00ADB22C
:1017EC00B3F8AE31EBB1214E06F5D277A7F5D2782E
:1017FC0096F8AD319CB206EBC303B3F89631C3F344
:10180C008D03A5EB83039BB2942B0AD92046FFF7DB
:10181C0037FF39462046FFF70BFFB8F8AE31002BE7
:10182C00E6D1124BB3F8B631EBB1104E06F5D277C8
:10183C00A7F5D27896F8B5319CB206EBC303B3F892
:10184C009631C3F38D03A5EB83039BB2082B0AD906
:10185C002046FFF715FF39462046FFF7E9FEB8F89A
:10186C00B631002BE6D1BDE8F08100BF8800002026
:10187C00034B002283F8C321FC2283F8C22170475A
:10188C0088000020F8B5D8B10446C37990F9072038
:10189C00002A24DB4F4B93F8C22183F8C321B3F801
:1018AC008431072B0BD94B4B93F8C43113F0800FB9
:1018BC0005D1484B93F8C4315BB2012B73DDF8BDF5
:1018CC00444B93F8922003EBD20302F00701012260
:1018DC008A4093F8C2110A4383F8C221DAE703F075
:1018EC008E03822B29D03B4B93F8C4315BB2002B77
:1018FC00E5D1A17901F0070201239340354A02EBAF
:10190C00D10292F8C2110B43DBB282F8C231E279F8
:10191C0002F08C02802A1ED02E4B93F8AD4103EBC3
:10192C00C40404F5CA7403F5D6739C42B2D0A3F177
:10193C001807A7F5CA752E461EE0264B93F8C4313E
:10194C005BB2002BD5DC234BFF2283F8C221002095
:10195C00FFF798FFCDE7627E13431E4A82F8C2312F
:10196C00DAE7B6F8B42092B26FF07F0180B2FFF7DD
:10197C00F9FE194B9C428DD0E21BD008647805EB24
:10198C00C40404F5CA7495F8C4315BB2002BE8DCCE
:10199C0006EB921292F8C23100F00702134113F0D9
:1019AC00010FE6D0DDE7FF2A89D10A4B93F8C44139
:1019BC0063B22BB1013464B2064B83F8C4417EE7A9
:1019CC00044BFF2283F8C421FFF752FF0020FFF7DE
:1019DC0059FFEFE78800002034020020B24B1B882F
:1019EC0043B140F2FE22934212D0AF4B00221A8038
:1019FC00032070470023AD4A1360AD4A1380AD4AF3
:101A0C001380AD4A13705370A74B40F2FE221A801C
:101A1C00AA4BD3F8B83013F0020F40F057840020D3
:101A2C007047A64BD3F8B83013F0040F00F076844F
:101A3C00A34801F011F900F071BC04EB4010B0F8B0
:101A4C00049090F807A001F007F9D4F880303268C0
:101A5C009B1A042B13D9D4F884303360D4F8842027
:101A6C0033689A422CD003F0030004EB401292F836
:101A7C000680B8F1010FE0D901333360EEE7013293
:101A8C003260BFF35F8F102304F1B80151E8002FCF
:101A9C0042EA030241E80023002BF7D1BFF35F8F2A
:101AAC004A4651464046FFF75DFE4D4505D06B1E3C
:101ABC009945D3D187F801A0D0E787F800A0CDE7EE
:101ACC007E4BB3F8AE61B3F8B6311E4401361FFA43
:101ADC0086FABAF1FF0F00F28280784BB3F8BE3170
:101AEC00AB423DD3754AB2F8BC2112B9734AA2F885
:101AFC00BC51AB4202D9BAF1010F77D96F4A92F8B7
:101B0C00AD3102EBC30303F5CA7302F5D6729342EF
:101B1C000DD0A2F5D67110465A8865F38F025A8003
:101B2C005B7801EBC30303F5CA738342F4D1634AB8
:101B3C0092F8B53102EBC30303F5CA7302F5DA72FE
:101B4C0093420DD0A2F5DA7110465A8865F38F02D4
:101B5C005A805B7801EBC30303F5CA738342F4D15B
:101B6C00564BB3F88431082B58D0002B6BD1002086
:101B7C00BFF35F8F514B6FF00402B83353E8001F73
:101B8C0001EA020143E80012002AF7D1BFF35F8F8C
:101B9C00002840F00C8202F035F902F083F9474B33
:101BAC0093F9A830002B05DB444BB3F88431002BA0
:101BBC0040F02282414BB3F8BE31AB42C0F04283BD
:101BCC00394B40F2FE221A803C4BD3F8B83013F05C
:101BDC00020F40F07E83002009B0BDE8F08F4FF477
:101BEC005E7238493848FEF7C7FE76E76FF0004161
:101BFC00BAF1000F18BF0131304AB2F8BC01431ED4
:101C0C00324C34F811100B449BB2A2F8BE31A2F83E
:101C1C002432A2F826A2A2F82802A1E7274B93F8B7
:101C2C00C03183B9254BB3F8AE3163B9234B93F86C
:101C3C00C13143B1214BB3F8BE31AB4203D21F4B80
:101C4C00012283F8C0211D4B93F8933003F08D03D0
:101C5C00812B1DD0194BB3F8BE31AB4205D9164BB5
:101C6C005B7813F0400F40F09E81144A0023A2F8D9
:101C7C00E231D2F8DC7102F5EA721C4602F1180C62
:101C8C004FF0FF39101D6FF00708A8EB000835E086
:101C9C000224204602F0B6F80028FAD0024B0022AB
:101CAC001A80022098E700BFD8020020E40200202E
:101CBC00CE020020CC020020D002002088000020A0
:101CCC0014010020A0520000E45200002852000031
:101CDC0051F8043B043262450BD2002BF8D05C4225
:101CEC001C401668344202D023EA0403F3E7624531
:101CFC000AD34B4602464144032927D9B7B11146B2
:101D0C0051F8043BB74AE8E7B4FA84F1C1F11F017A
:101D1C00B448131A9B0801EB4313DB439BB2A0F5A9
:101D2C00F472C2F8E441A2F8E2310123AE4AD2F8CF
:101D3C00D0E102F5E47202F124004FF0FF39A0F17A
:101D4C0020076FF00708A8EB070819E04FF0FF33E6
:101D5C00ECE751F8043B043282420BD2002BF8D052
:101D6C005C421C401668344202D023EA0403F3E7B9
:101D7C00824210D34B463A464144032940F26882D2
:101D8C00002B00F36782BEF1000F3ED0114651F8D4
:101D9C00043B944AE2E7B4FA84F7C7F11F07914970
:101DAC00531A9B0807EB43131FB2A1F5F473C3F846
:101DBC00E44193F9A830002B09DB002FC0F24582D7
:101DCC007B1C9BB2884AA2F8E231012342E2A1F5C6
:101DDC00AA7000F0DDFFB842EFDCEFF3108872B6AA
:101DEC00BFF35F8F02F05EF801280BD07E4B93F8A7
:101DFC00A8206FF3C71283F8A820BFF35F8F88F376
:101E0C001088DAE74FF0FF37F7E7774AB2F8BE7180
:101E1C00AF425BD813B90020044624E2724AB2F8F0
:101E2C008401C0EB403080B2B2F8B621002B35DB18
:101E3C00511CDFF8B4E1BEF9E2C1BCF1000FB8BF30
:101E4C00CCF1000C1FFA8CFC0CF1FF3C4FEA5C1C33
:101E5C009EF8AD210EEBC20202F5CA720EF5D67ECB
:101E6C00724513D04FEA8C0CAEF5D678F14602EBE6
:101E7C000C0EDEF804E014EA0E0F08BF01315278A4
:101E8C0008EBC20202F5CA724A45F0D1012921D9E8
:101E9C004FF6FF74B4FBF1F18CB2E4E15249B1F8A6
:101EAC00AE11023102EBA10214460F2A28BF0F24F7
:101EBC004E4931F81440AAEB0201012940F2D381BA
:101ECC00AAEB0202B4FBF2F4A4B2CCE10023184654
:101EDC001C46C8E14FF6FF74C5E105F00102444908
:101EEC000A80444A1580424A11883F4A92F892204F
:101EFC008A4209D03C4AD2F8B82012F0040F17D00D
:101F0C00012D4AD0002033E6002B08DB4FF6FF747E
:101F1C0000F076FEA0428CBF0020012028E600FBDA
:101F2C0004F4C0EB144084B2002CF1D100201FE665
:101F3C0005F1010CBCF1070F07D805EB450E2A4A39
:101F4C0002EBCE02B2F8C42052B3274A02EBC10115
:101F5C0091F8962112F0030F04D033B300FB04F474
:101F6C00240CE1E7BC450DDA1F4BB3F8BC31EB1A7E
:101F7C009BB2012B02D94FF40044C9E76FEA8333BB
:101F8C009CB2C5E7002BCFD10AF101064FF4807447
:101F9C00B4FBF6F42402A4B2C6E74FF6FF74B7E71D
:101FAC004FF6FF74B4E70020E2E50020E0E5B83B13
:101FBC0093F9A830002BFFF6EEADEFF3108372B659
:101FCC00BFF35F8F084AD2F8AC2022B1BFF35F8F0A
:101FDC0083F31088DFE50449D1F8B0200432C1F84E
:101FEC00AC20F3E77002002088000020B8530000FA
:101FFC00CE020020CC020020A84B93F8A82042F07F
:10200C00400283F8A820D3F8B030EBB1A44B009376
:10201C00D3F8F820F0339A4275D2A3F5C273B3F912
:10202C00E231002B17DD013B03EB43039D4A02EB2E
:10203C00C30801264FF0000A9A4CA4F1C409A4F17C
:10204C00300B04F1C0076FE040F24B2296499748E1
:10205C00FEF792FCDAE7537D5371937D9371D37D38
:10206C00D371043201928D4901F5C270D1F88C21E3
:10207C0002F11803C1F88C31834204D2138B002B6C
:10208C00F4D1022600E00226894C24F00104731CD2
:10209C0003EBD3735B109B0016F0010600F0C880B5
:1020AC00C3F11407C3F11503A26844F82320FB1EE7
:1020BC006FEA03536FEAD3432381A7F1160240F270
:1020CC00FE7303EA420343F42843A4F85630BFF3EB
:1020DC005F8FBFF36F8F11226946714802F03EFB90
:1020EC00002E00F0AB800137724B44F827304FF6CE
:1020FC00D00323814AF6D873A4F85630BFF35F8F10
:10210C00BFF36F8F3EE0654BB3F9E231002B8ADCF5
:10211C004FF000088DE711226946584602F01EFB6D
:10212C0000261834BC4225D022884FF6FF739A4201
:10213C00F7D0A045F5D200F063FD10F0070F08BFF3
:10214C00C9F8B040B9F8B43010F4004FE9D10AF135
:10215C00010A637D6371A37DA371E37DE371711C3F
:10216C0008AB03EB8603221D43F8202C072ED2D09C
:10217C000E46D6E7BAF1000F02D1B8F1000F36D0F7
:10218C00002E45D1454B93F8A83013F0400F3FF487
:10219C0011AD00F035FD0146EFF3108072B6BFF3C0
:1021AC005F8F3E4B93F8A83013F0400F1AD03B4B87
:1021BC0093F8A82061F3050262F07F0283F8A8204F
:1021CC00D3F8AC20C433D31ABF2B0BD8334AD2F874
:1021DC00AC30043BD2F888219A4203D02F4B00221A
:1021EC00C3F8AC20BFF35F8F80F31088E2E42B4B75
:1021FC00D3F8B0305A7D5A719A7D9A71DA7DDA71C2
:10220C0008AA02EB8602043342F8203C0136B7E7F9
:10221C00082E0ADD872228492848FEF7ADFB11223B
:10222C0069461F4802F09AFAACE7072EF7DC2BE759
:10223C00C3F11207A36844F8273038E7204B44F861
:10224C00273054E7FFF7C4FABAE44FF0FF3301E04C
:10225C004FF0FF33114AB2F8BE71BD42BFF4DEAD90
:10226C00002318461C46174A1188691A89B20F298F
:10227C003FF633AE012906D90A46023A92B2012A38
:10228C00FBD801F00101104A12880A4492B2012ACB
:10229C0088BF023A0C490A8023E600BF8800002060
:1022AC001C0100204C010020A0520000F452000040
:1022BC000D00002081EA040118530000585300005F
:1022CC0081EA0301CC020020CE0200202DE9F04F60
:1022DC0089B0BFF35F8F184B6FF0020203F1B800A7
:1022EC0050E8001F01EA020140E80012002AF7D171
:1022FC00BFF35F8FB3F8B450ADB2104A1178517080
:10230C0000211170B3F8E031EB1A032B7FF789AB86
:10231C00A0F1B803C3F8D011C3F8DC11064BD3F805
:10232C008420074B1B689A423FF4CAAB024C044E04
:10233C00024FFFF798BB00BF88000020D00200209E
:10234C00E40200202DE9F04389B00746038893B1DD
:10235C0040F6081293420AD18D490A68531E0B604D
:10236C00002A0BDC8B4BB3F8B420A3F820220023FB
:10237C003B800320C1E00723854A136085484FF654
:10238C00FF71834C03EB430200EBC202B2F8C42092
:10239C008A424ED003EB4303DB00C8337D4A13441F
:1023AC00EFF3108172B6BFF35F8FD2F8AC209A4274
:1023BC0045D0BFF35F8F81F31088EFF3108272B6B4
:1023CC00BFF35F8F734BB3F9E231002BB8BF5B42A5
:1023DC009BB2013B6E4909688B4235D0BFF35F8FCE
:1023EC0082F310886A4B1A68531C02EB42056D008D
:1023FC0005EB53153335674901EB8505DC4304F0D8
:10240C001F004FF00044044102EB4202520002EB69
:10241C00531201EB8202D2F8C820144023F01F02A1
:10242C00072A66D800215B4E4FF6FF78DFF86091E3
:10243C006BE02268531E2360002AA3DC92E7554B05
:10244C000022C3F8AC20B4E7524B0021A3F8E211F0
:10245C00C4E755F8044B2032072A56D9002948D036
:10246C004B4B1B6803EB43034B4C04EBC304082995
:10247C0079DC07297CDC494D25F001054B1C03EB6D
:10248C00D3735B109B0011F0010677D0C3F11408D5
:10249C00C3F11503AA6845F82320A8F103036FEADA
:1024AC0003536FEAD3432B81A8F1160340F2FE725B
:1024BC0002EA430343F42843A5F85630BFF35F8F79
:1024CC00BFF36F8F14226946204602F047F9002EA5
:1024DC005AD008F10108324B45F828304FF6D0039A
:1024EC002B814AF6D873A5F85630BFF35F8FBFF334
:1024FC006F8F40F608133B80012009B0BDE8F083D4
:10250C000A46631E1C4011460022002CA1D0002C50
:10251C000EBF631E94FAA4F3B3FA83F31344072B90
:10252C009CD803EB430206EBC202B2F8C42042452E
:10253C00E6D04A1C08A800EB810003EB430306EB32
:10254C00C303C83340F8203C0729DAD1D9F800007E
:10255C0000EB400006EBC00014226946C83002F0C4
:10256C00FDF80022CDE787220E490F48FEF704FA4A
:10257C0014226946204602F0F1F8BAE7C3F11208BA
:10258C00AB6845F8283088E7084B45F82830A5E7B4
:10259C00C802002088000020500100200D000020FF
:1025AC0081EA0401185300005853000081EA03012A
:1025BC002DE9F04389B0944B5B8840F6320293428C
:1025CC0020D063D840F21772934257D040F23F723A
:1025DC0093424CD18D4BB3F88431072B00F24082DF
:1025EC008A4BD3F8AC208A4B196801F108039A4244
:1025FC0000F0A980864B1B685A7A5A769A7A9A769A
:10260C00DA7ADA76ADF104070025814EDFF80C8218
:10261C00A8F1C8093068083000F0BAFB041EC0F2FB
:10262C00BC8004EB4403794A02EBC303B3F8C42027
:10263C004FF6FF739A4200F0F380306804EB4404C9
:10264C00836858F8342053408360013509EBC40487
:10265C00CC3447F8044F082DDCD1102269460C30DD
:10266C0002F07CF8684B40F632025A8007E2002BED
:10267C0040F00982644B40F217725A80634BD3F8D6
:10268C00B83013F0100F4DD10020F9E140F6630281
:10269C0093423CD040F67502934230D15B4BD3F859
:1026AC0088205C4B1B689A42E4D05848D0F888309C
:1026BC0003F0030300EB4310554A10608279012AA2
:1026CC0000F2CE81C37903F08C02802A0AD013F079
:1026DC00800F3FF47FAF4D4B93F8C4315BB2002BAE
:1026EC007FF478AFFFF7CEF8484BB3F88431072B63
:1026FC0000F2B681444B40F23F725A80BFE140F683
:10270C005802934240F0BF81434B00221A8042484A
:10271C00FFF718FE012800F2A0813B4B40F6630244
:10272C005A80ACE1BFF35F8F384B6FF01002B833B7
:10273C0053E8001F01EA020143E80012002AF7D116
:10274C00BFF35F8FAAE7314AD2F8882182B189683A
:10275C005D689C68D86851609560D4601061196997
:10276C0051615379537593799375D379D375043239
:10277C00EFF3108172B6BFF35F8F244BD3F8AC002C
:10278C00234B1B680833984204BF204BC3F8AC2082
:10279C00BFF35F8F81F310882CE7EFF3108172B6D3
:1027AC00BFF35F8F194AD2F88430D2F888209B1A75
:1027BC00012B23D0BFF35F8F81F31088134BB3F839
:1027CC008431072B40F24C81104B0822A3F8842152
:1027DC000F4A12689288A3F81E22EFF3108272B689
:1027EC00BFF35F8F0021C3F8AC10BFF35F8F82F390
:1027FC001088054B40F658025A8040E1034B0022EA
:10280C00C3F8AC20D6E700BFD80200208800002017
:10281C00D4020020E4020020E0020020500100203D
:10282C009B4B1E68B0889B4904EB440301EBC3032C
:10283C00A3F8C400B388A1F89031002D47D00C3612
:10284C00A846082D00F3A780072D00F3A980924D10
:10285C0025F0010508F1010303EBD3735B109B001A
:10286C0018F0010800F0A280C3F11407C3F115039E
:10287C00AA6845F82320FB1E6FEA03536FEAD34383
:10288C002B81A7F1160240F2FE7303EA420343F4D4
:10289C002843A5F85630BFF35F8FBFF36F8F10221C
:1028AC006946304601F05AFFB8F1000F00F0848001
:1028BC0001377A4B45F827304FF6D0032B814AF677
:1028CC00D873A5F85630BFF35F8FBFF36F8FEFF35C
:1028DC00108172B6BFF35F8F6E4AD2F8AC309B1A80
:1028EC007F2B04D96A4B1B680833C2F8AC30BFF39A
:1028FC005F8F81F31088EFF3108572B6BFF35F8F93
:10290C00644BB3F9E231002BB8BF5B429BB2013B85
:10291C00A34255D0BFF35F8F85F3108804EB4405B9
:10292C00ED0005F1C8085B4FB844594BD3F800C013
:10293C004646DCF80800DCF80C10DCF81020DCF85B
:10294C0014300FC6DCF818003060B7F8842101325F
:10295C0092B2A7F8842105F1C4033B44C7F8B03008
:10296C00D7F888118B4236D063094A4D7A3304F07C
:10297C001F01012202FA01F155F8232022EA01027B
:10298C0045F823200422414605F5F67000F046F97F
:10299C00A5F8F00112E7872241494248FDF7ECFF08
:1029AC0010226946304601F0D9FE90E7C3F11207B8
:1029BC00AB6845F827305EE73B4B45F827307BE7A3
:1029CC0040F2D77239493A48FDF7D6FF314B002215
:1029DC00A3F8E2219EE7082A3AD03A4607F1C4054B
:1029EC004FF6FF70D2F88831A3F11801C2F88811A4
:1029FC00AB4203D933F8183C8342F3D12D4B9942A7
:102A0C00B2D2C43B03F5B672C3F8882103F5C27386
:102A1C004FF6FF75A2F5B67202F1C40033F8183CFC
:102A2C00AB4207D0D2F88831A3F11801C2F8881153
:102A3C008342F3D8174B03F1C402D3F88831934285
:102A4C0092D240F60F0219491B48FDF795FF8BE710
:102A5C00104B0022C3F8882186E70020FEF712FFF6
:102A6C000C4BD3F888200132C3F88820B3F81C2211
:102A7C000132A3F81C22114B40F675025A8001203A
:102A8C0009B0BDE8F0830D4B00225A800320F7E714
:102A9C00D4020020880000200D00002081EA0401EF
:102AAC00185300005853000081EA0301A0520000A3
:102ABC00745300004C01002098530000D8020020F1
:102ACC00494B9B8843B140F62412934217D0464B96
:102ADC0000229A8003207047444B01221A64D3F8D9
:102AEC004035434A03F10043013BC2F8BC304FF67A
:102AFC00FF73A2F8C0303C4B40F624129A803C4B3A
:102B0C00D3F8B83013F0080F01D100207047BFF391
:102B1C005F8F374B6FF0080203F1B80050E8001FCD
:102B2C0001EA020140E80012002AF7D1BFF35F8FDF
:102B3C002E4A01211164D2F84025B3F8B4309BB26F
:102B4C00312B06D8A0F1B803D3F8BC30D31A002B24
:102B5C001ADB10B5BFF35F8F254B2022B83353E837
:102B6C00001F41EA020143E80012002AF7D1BFF32B
:102B7C005F8F0224204601F045F90028FAD01A4B49
:102B8C0000229A80022010BD1949B1F8B4309BB2D2
:102B9C00B1F8C0109942AED0154BB3F8B410A3F8ED
:102BAC00C010B3F83C1289B2D3F8383279B173B192
:102BBC000F4AD2F83812B2F83C329BB2C3F132034E
:102BCC004FF4FA4000FB0313C2F8BC3093E70849FA
:102BDC00B1F8B4309BB2C3F132034FF4FA4000FBAE
:102BEC000322C1F8BC2086E7D802002000800040F8
:102BFC0088000020014B1860704700BF08000020BF
:102C0C00054B186880EA800080EAD03080EA4040AA
:102C1C00186080B2704700BF0800002010B522F089
:102C2C00030E00EB0E03984211D284468E44002012
:102C3C00084C11F8012B9CF8003023EA02030CF825
:102C4C00013BE35C184480B28E45F2D110BD0020EC
:102C5C00FCE700BF3C4A000038B504464A4B98429A
:102C6C0016D0C37990F90720002A11DB8279012A4A
:102C7C001ED803F00F03032B1BD0022B37D0E379A4
:102C8C0013F08D0F04D1617E3332404B03F83210B8
:102C9C003E4BD3F8DC3133B13C4B0022C3F8DC2182
:102CAC00A288A3F8E021394BD3F8D031002B3CD1CA
:102CBC0038BD364BD3F8DC3143B9417E334B83F806
:102CCC00D81183F8D4110121C3F8DC112F4BD3F8A0
:102CDC00F451D3F8D8012840C3F8D801D3F8D41153
:102CEC002940C3F8D411A188A3F8E011C7E7274BFA
:102CFC00D3F8D03143B9417E244B83F8CC1183F8FF
:102D0C00C8110121C3F8D011204BD3F8F451D3F8DA
:102D1C00CC012840C3F8CC01D3F8C8112940C3F822
:102D2C00C811A188A3F8E011A9E704F1080000F08C
:102D3C002FF800281ADB012383404009134A02EBC9
:102D4C008002D2F8CC211A4210D01049723001EB1B
:102D5C00800C22EA0302CCF8042051F8202022EA4D
:102D6C00030341F82030A388A1F8E031074B00227F
:102D7C00C3F8D021D3F8CC31002B99D0034B0122CE
:102D8C00C3F8D02194E700BF140100208800002074
:102D9C00036813B94FF0FF307047002B0EBF013B97
:102DAC0093FAA3F3B3FA83F3082B34BF18464FF00E
:102DBC00FF3070471C4B01221A64D3F840251B4B83
:102DCC009B68A3F5A073D21A002A1CDB164B0122B8
:102DDC00DA64D3F84C2502F10A02C3F84C254FF4FF
:102DEC000022C3F80423124AB2F814320133A2F8B9
:102DFC0014320E4B93F83C30002B18BF0C230B4AAB
:102E0C0082F83C307047084AC2F84C350023C2F8AF
:102E1C004C31084B4FF48071C3F880114FF40023F0
:102E2C00C2F80433E5E700BF00800040E802002050
:102E3C008800002000E100E038B5B24B93F83C006C
:102E4C000C2800F0CD81B04BD3F838312BB1AE4B00
:102E5C00D3F8043313F4804F38D14FF0A0434FF420
:102E6C008032C3F80825A84C4FF0FF33C4F8083360
:102E7C00A64B4FF44022C3F80825A3F5B833012222
:102E8C001A64D3F84035A249D1F82C2213449D4A38
:102E9C00156C5B1BC1F82C3200231364D4F8043579
:102EAC0013F80329182A50D09949B1F80422013299
:102EBC00A1F8042201229749CA64D1F84C2502F1E9
:102ECC000A02C1F84C250022DA7038BD4FF0A0433D
:102EDC004FF48032C3F80C258B4B4FF48042C3F86F
:102EEC000823D3F80425194613782BB9D1F850359B
:102EFC0003F00F03032BF7D01378DBB2182B0FD092
:102F0C00834AB2F804320133A2F804320123814A15
:102F1C00D364D2F84C3503F10A03C2F84C35D4E72C
:102F2C007C4AD2F8483503F548532033C2F84C3567
:102F3C000023C2F84C31784B4FF48071C3F88011E8
:102F4C004FF40023C2F80433BFE7D4F8002412F086
:102F5C00010FA9D06E49B1F802220132A1F8022268
:102F6C006C4AD2F84825C1F838229C88A1F83C421A
:102F7C00002870D1634902F5DF4240324A600022DA
:102F8C00CA600A614FF424728A614FF48C624A6100
:102F9C00102281F83C2099885D4AA2F8B4105C4953
:102FAC00B1F8B42092B2B1F8BE11914200F2E180B6
:102FBC00002454494A6891F83D10012900F0EF8033
:102FCC0050484069121A4F4882605148D0F880200E
:102FDC00D0F88800121A032A00F2E7804C4AD2F883
:102FEC0084000130C2F88400B2F88421082A03D08E
:102FFC000833474AC2F8AC30454AB2F8FA310133CB
:10300C00A2F8FA31002C00F0E880414AB2F8FC3109
:10301C000133A2F8FC31022900F0DA80394B00228E
:10302C0083F83C2083F83D20EFF3108172B6BFF398
:10303C005F8F384B0122DA64D3F84C2502F10A0277
:10304C00C3F84C25BFF35F8F81F310884FF4002237
:10305C00C3F8042339E72E49B1F8B41089B28C4275
:10306C0008D02B49B1F816020130A1F81602988845
:10307C00A1F8B40023490868101A80224A61CA6872
:10308C001146002AB8BFD11C89100029B8BF49428B
:10309C0080EAE074A4EBE074A142B8BF2146403151
:1030AC00802984BF174C6161164C616901F5207150
:1030BC0061619446002AB8BF02F1070C6168A1EB6C
:1030CC00EC01104C6160941C48BF0334A2EBA402C9
:1030DC0002440C48C26082EAE270A0EBE270B0F5E8
:1030EC00407F1BD90A4AB2F8FE110131A2F8FE1139
:1030FC00B2F8FC110131A2F8FC11B2F8B420012491
:10310C0057E700BFE80200200010004000F001402B
:10311C00880000200080004000E100E01046002AFA
:10312C00B8BFD01D01EBE0013D48416001690A4484
:10313C003C499142B8BF114647F6FF74A142A8BF63
:10314C002146016112F1070F10DB0A460029B8BFB6
:10315C00CA1DD110B2F5427F314A28BF602191615E
:10316C002F498A6902F524728A6118E7002181616E
:10317C00F6E72B4A92F83D1002294DD0DA7912F07D
:10318C00200F10D0284A92F9A820002A01DB002435
:10319C000FE7234A012182F83D1052680024204990
:1031AC00886901210EE7002403E71F4BB3F8843133
:1031BC00072B06D81C4AB2F818320133A2F8183281
:1031CC0020E7194AB2F81A320133A2F81A3219E779
:1031DC00134B0C2283F83C2026E7FFF7EBFD74E63B
:1031EC00124B4FF0FF32C3F808234FF0A0434FF4BB
:1031FC008032C3F808250E4B01221A64D3F84035EF
:10320C000949D1F82C221344054A106C1B1AC1F839
:10321C002C320023136458E6014A52680024CFE68E
:10322C00E80200200080FFFF880000200010004012
:10323C000080004010B50F4B1B6853B10E4B0122A0
:10324C001A64D3F840250D4BC3F83422094B0022E5
:10325C001A604FF0A044D4F8043583F40043C4F84A
:10326C000435FFF7E9FDD4F8043583F40043C4F8C2
:10327C00043510BD84000020008000408800002030
:10328C0006480078874400BF4DF804ED00F0B6F80E
:10329C005DF804EB00F064BC00F0B0B8240300202F
:1032AC0010B5504BD3F83831002B79D04D4BD3F8A7
:1032BC00042382F48042C2F380324A4B4FF0FF3138
:1032CC00C3F8081348494FF44020C1F80805D3F857
:1032DC00503503F00F03042B02D0424B012119612E
:1032EC00424B0221C3F880114FF0A0434FF48031C0
:1032FC00C3F808153E4B1B6C13F0010F0FD03D4B60
:10330C0001211964D3F840353B48D0F82C120B44FA
:10331C0037490C6C1B1BC0F82C3200230B64344B4C
:10332C0093F83C30002B3AD0002A3BD1324AB2F809
:10333C0006320133A2F806322D4A536940335361E9
:10334C00B3F5C86F40D92C4BB3F800220132A3F867
:10335C000022B3F8FC210132A3F8FC21244B93F892
:10336C003D30022B2BD0224B002283F83C2083F8DB
:10337C003D20EFF3108172B6BFF35F8F1D4B01221E
:10338C00DA64D3F84C2502F10A02C3F84C25BFF3DA
:10339C005F8F81F310884FF40022C3F8042310BD13
:1033AC0000228AE70F4BD3F804351B78182BC3D1B6
:1033BC00114AB2F808320133A2F80832BCE70C4BC0
:1033CC000C2283F83C20D4E709494A6891F83D1057
:1033DC00012904BF064B9B69D31A054A9360FFF77A
:1033EC00E9FCDCE70010004000F0014000E100E0E7
:1033FC00E8020020008000408800002010B50F4B30
:10340C001B6853B10E4B01221A64D3F840250D4BA7
:10341C00C3F83422094B00221A604FF0A044D4F8B0
:10342C00043583F48043C4F80435FFF739FFD4F82E
:10343C00043583F48043C4F8043510BD84000020A7
:10344C0000800040880000204F4B4FF40022C3F84E
:10345C0008234E4B93F83D30022B24D070B54B4AC9
:10346C0092F83C20002A00F0C682002B00F0A582C6
:10347C00454BD3F84C1501F5A071C3F84C1500223F
:10348C00C3F84C2103F5B833414AC3F8A825414A87
:10349C00C3F8AC254FF40022C3F8042501253A4AA1
:1034AC002846002453E03C4BB3F8B420A3F8222266
:1034BC00BFF35F8F0122B83353E8001F41EA0201CA
:1034CC0043E80012002AF7D1BFF35F8F70476446C0
:1034DC001064D2F840355B1A002BF8DB2D4BD3F877
:1034EC00503503F00F03012B0ED02C4B4FF4002260
:1034FC00C3F80825002C00F08982274AB2F80C3258
:10350C000133A2F80C3279E2244B4FF40022C3F8B9
:10351C0008257BE202F59C3280326260A260FFF7E4
:10352C0049FC94F83C30002B40F0C882BFF35F8F0D
:10353C00194B0822B83353E8001F41EA020143E853
:10354C000012002AF7D1BFF35F8F70BD25461064BF
:10355C00D2F840355B1A002BF8DB0E4BD3F8503504
:10356C0003F00F03092B1BD00C4B4FF40022C3F8B4
:10357C000825DDB10122A3F5F0331A6003F5E04311
:10358C001A64D3F8401511E000800040E8020020D6
:10359C004C810040001000408800002000F00140E9
:1035AC00A24B4FF40022C3F808250025A04B03F1D1
:1035BC001F00A04AC2F804051822DA774FF0A04287
:1035CC004FF48030C2F80C0541F0010119642DB1A3
:1035DC00994AB2F80E320133A2F80E32964AB2F87A
:1035EC00B43001339BB2A2F89030002182F89310D2
:1035FC00072B1ED803EB43028F4901EBC202B2F832
:10360C00C4202AB991F8932042F0200281F893202B
:10361C005A1C072A0DD802EB4202874901EBC20261
:10362C00B2F8C4202AB991F8932042F0400281F8F4
:10363C009320814AB2F88421082A00F0C280C2F19A
:10364C0008021A2A28BF1A227B49B1F89011591A7C
:10365C007A48805C8AB2904208D9774AB2F8BE2187
:10366C009A421AD8744BB3F8AE31B3B9724BB3F863
:10367C00F021062A28BF062293F8A83070498A5CEC
:10368C0003F03F039A426C4B93F893208CBF0221BA
:10369C00032161F3030283F893200023694D19463B
:1036AC00694A28461C464FF0040C00BF43EA01034C
:1036BC0050F8041B002C1CBF54F804EB81EA0E01DB
:1036CC0042F8041BBCF1040CF0DC1CF1040C4FEAB6
:1036DC00CC0C4FF0FF3E0EFA0CFE21EA0E0143EA31
:1036EC000103EC69B5F952118AB202F5FF437F333D
:1036FC009BB247F6FE70834200F28080C943A5F16D
:10370C00900393F9A830002B6FDB01EB41014F4C78
:10371C0004EBC104484AB2F8B4300133A2F8E031EA
:10372C004B4BE31ABF2B05D8637C6370A37CA3704F
:10373C00E37CE370404B93F9A830002BC0F29280ED
:10374C00002C6BD04FF0000C6146424A2346604679
:10375C006446112544EA010453F8041B00281CBFDD
:10376C0050F8046B714042F8041B043DF2DC043544
:10377C004FEAC5054FF0FF3606FA05F621EA0601B9
:10378C0044EA01042C4B93F8A8206CF3861283F8BE
:10379C00A820294B93F8932002F08F03032B00F001
:1037AC00088100F29E8012F08D0F00F00481224BF4
:1037BC0093F8933003F00F030F2B40F0F280264A5E
:1037CC0095E01D4B93F8932042F0800283F89320F0
:1037DC0093F8C031002B3FF460AF174BD2B20121EC
:1037EC0061F3030283F8932057E74B092A1D52F823
:1037FC002300D2F8503118428CD186E700298FDD96
:10380C00531E1BB203EB4303DB00C8330A4A9C185C
:10381C00B2F8B4300133A2F8E03181E740F2B4528F
:10382C000E490F48FDF7A8F88CE700BF00F00140E7
:10383C00E802002000100040880000209455000091
:10384C00B055000018010020080300205001002092
:10385C004C0100200C0300201C010020D853000058
:10386C002454000000221046AE49AF4D23461124CB
:10387C0042EA000255F8040B002B1CBF53F8046BF2
:10388C00704041F8040B043CF2DC04344FEAC404ED
:10389C004FF0FF3606FA04F620EA060042EA000270
:1038AC00002A7FF476AF0122A04B1A614FF0A0439F
:1038BC004FF48031C3F808159D4B1A64D3F840358A
:1038CC009C4AD2F82C120B449B49086C1B1AC2F868
:1038DC002C3200230B64B2F810320133A2F81032F0
:1038EC004EE083F08003032B3FF661AF934A002533
:1038FC00914B03F1350128462C46AC464FF0010E96
:10390C004CEA000C52F8040B002C1CBF54F8046B4E
:10391C00704041F8040BBEF1040EF1DC1EF1040EF4
:10392C004FEACE0E4FF0FF3606FA0EF620EA0600EE
:10393C004CEA000C7D4AC2F80C510821C2F8041361
:10394C007C4D05F18C0403F11C0CBCE80F000FC47A
:10395C009CE80F0084E80F00BFF35F8F042305F190
:10396C00B80151E8002F42EA030241E80023002B82
:10397C00F7D1BFF35F8FB5F8F8310133A5F8F83103
:10398C006D4A0C2382F83C306A4B93F8A8106FF305
:10399C00C71183F8A8100021C3F8AC1082F83D10B1
:1039AC008CE040F20E6266496648FCF7E5FF5E4A21
:1039BC009DE7654A9BE7654A99E75D4BD3F84C1543
:1039CC0001F5A071C3F84C150022C3F84C2103F586
:1039DC00B8335F4AC3F8A825A2F5E242483AC3F8C7
:1039EC00AC254FF40022C3F804250124504A20468C
:1039FC004FF0000C6CE54E4BD3F84C3501224B4B81
:103A0C005A6003F5E0431A64D3F840154A4C41F070
:103A1C00010121644F49504BC1F8A83503F5DE4331
:103A2C001033C1F8AC354FF40023C1F804354148CC
:103A3C00D0F8843003F0030300EB431303333B4A09
:103A4C00C2F80435D0F884300133C0F880304FF41C
:103A5C008023C1F80435D2F8041500230B70C2F88A
:103A6C003831C2F80C31C2F8283144F20843C2F89C
:103A7C000433636803F5546222602D4A01211164FA
:103A8C00D2F8402594F83C1000293FF443AD2A4964
:103A9C004A69134403F52C63254AC2F84C350023BC
:103AAC00C2F84C312D4B4FF48070C3F880014FF4A9
:103ABC000023C2F80433102381F83C301D4BB3F8BB
:103ACC00B420013292B2A3F8B420BFF35F8F02226C
:103ADC00B83353E8001F41EA020143E80012002A00
:103AEC00F7D1BFF35F8F144BD9680029B8BF0731EA
:103AFC00114A536803F5FA4303EBE103536092F860
:103B0C003D20012A0C4A0CBF916951690A4A5B1A83
:103B1C00936092F83C300C2B7FF408ADFFF74AF918
:103B2C0004E500BF0C0300201C0100200010004025
:103B3C000080004088000020E80200204B0200209A
:103B4C00D8530000B049000074020020700200201D
:103B5C004C81004000F001403811004000E100E0D1
:103B6C0010B50F4B1B6853B10E4B01221A64D3F8DE
:103B7C0040250D4BC3F83422094B00221A604FF03C
:103B8C00A044D4F8043583F40053C4F80435FFF78B
:103B9C005BFCD4F8043583F40053C4F8043510BD31
:103BAC0084000020008000408800002010B5FCF745
:103BBC00FDFE012831D11C4A44F20303C2F8003245
:103BCC001823C2F81835C123C2F86035174B1849B1
:103BDC00C3F8A015A1F58C71C3F8A4154FF0FF30F4
:103BEC00A3F5B833C3F80803124B002183F808136C
:103BFC004FF48074C3F880411C60C2F8080383F84A
:103C0C0001130222C3F880211A6003F54063196185
:103C1C004FF080430122DA6710BD40F2656206491D
:103C2C000648FCF7A9FEC6E70010004000F0014072
:103C3C002811004000E100E0D8530000305400008F
:103C4C0010B5294C20222949204600F0A7F9402222
:103C5C002749204600F0A2F980222649204600F090
:103C6C009DF94FF470722449204600F097F9042214
:103C7C002249204600F092F902222149204600F008
:103C8C008DF94FF440721F49204600F087F902224B
:103C9C001D49204600F082F960221C49204600F0A4
:103CAC007DF920221A49204600F078F94FF454622D
:103CBC001849204600F072F94FF47052164920460C
:103CCC0000F06CF9154C0D221549204600F066F9F0
:103CDC001B221449204600F061F944F6D502124922
:103CEC00204600F05BF910BD7C4C000054540000E1
:103CFC006C5400008054000090540000A05400004C
:103D0C00B8540000D0540000E0540000F8540000F7
:103D1C00085500001855000030550000585500009B
:103D2C00405500006455000080550000054B0022F2
:103D3C00DA601A614FF424729A614FF48C625A6102
:103D4C00704700BFE80200202B4BD3F8AC304BB3CC
:103D5C002A490C2381F83C30012281F83D20EFF3F5
:103D6C00108072B6BFF35F8F254BDA64D3F84C2505
:103D7C0002F10A02C3F84C25BFF35F8F80F3108861
:103D8C00D3F84C2502F5A2624A60D3F84C2502F513
:103D9C00A072C3F84C25BFF35F8F4FF40022C3F819
:103DAC0004237047154A002382F83C3082F83D30DA
:103DBC00EFF3108072B6BFF35F8F114B0121D96402
:103DCC00D3F84C1501F10A01C3F84C15BFF35F8F02
:103DDC0080F31088D3F84C1501F5A2615160D3F82B
:103DEC004C2502F5A072C3F84C25BFF35F8F4FF43E
:103DFC000022C3F80423704788000020E80200204A
:103E0C0000800040002847D038B50246234B0121E2
:103E1C001964D3F84015224B9B68A3F53463581AE8
:103E2C000028BCBF01F1004303F1FF33EFF3108412
:103E3C0072B6BFF35F8F1A4991F83C1039B9022A58
:103E4C0017D0BFF35F8F84F31088012038BD13485F
:103E5C0001250564D0F84005C31A002BF1DA104B8C
:103E6C0083F83D205A689869121A9A601029E8D094
:103E7C000FE00A4A01211164D2F84025D31A002B15
:103E8C00DFDA074B022283F83D205A689969521AEF
:103E9C009A60FEF78FFFD4E7012070470080004046
:103EAC00E8020020014B93F83D007047E802002027
:103EBC0038B585680446084645B122686168531CCC
:103ECC008B4208BF00208A420AD2A854E2682368B9
:103EDC002AB161688B4202D2214690472368013394
:103EEC00236038BD70B54D1E22D413681446C6B27B
:103EFC000EE0D0542368E2682AB16168994202D975
:103F0C00214690472368013D01336A1C23600FD082
:103F1C00A26872B1616803F1010C8C4514BF304684
:103F2C0000209942E5D8013D63466A1C2360EFD11D
:103F3C0070BD3046DFE700BFC3062BD410F4007F02
:103F4C0070B514BF302620264D1E22D4136814469B
:103F5C00F6B20EE0D0542368E2682AB16168994247
:103F6C0002D9214690472368013D01336A1C236026
:103F7C000FD0A2687AB1616803F1010C8C4514BFB3
:103F8C00304600209942E5D8013D63466A1C236007
:103F9C00EFD170BD70473046DEE700BF0FB410B5EF
:103FAC0088B00AAB0D4A53F8041B03936FF0004022
:103FBC000024CDE905040191079200F0C9FB039A96
:103FCC00019904A800F0C6F8019000F0C3FB019819
:103FDC0008B0BDE8104004B0704700BF870900006E
:103FEC0010B582B0441E00F0B3FB03E0FCF7C5FC37
:103FFC00431C08D014F8010F00210028F6D101460B
:10400C000A20FCF7BAFC019000F0A4FB019802B066
:10401C0010BD00BF027862B169B100EB010C034620
:10402C0001E0634503D013F8011F0029F9D1181AD8
:10403C007047104670470846704700BF844640EAF8
:10404C00010313F0030F18D18446202A0BD32DE95A
:10405C00F007B1E8F807A0E8F807A2F12002202A3F
:10406C00F7D2BDE8F007042A07D351F8043B40F817
:10407C00043BA2F10402042AF7D2002A05D011F85D
:10408C00013B00F8013B013AF9D160467047844688
:10409C00002A2DD010F0030F04D000F8011B013AB8
:1040AC0026D0F7E7C9B241EA012141EA0141202AB1
:1040BC0012D3A2F120022DE9F0030B460C460D465B
:1040CC000E460F4688468946A0E8FA03203AFBD2F2
:1040DC00BDE8F00320320BD0042A05D340F8041BB2
:1040EC00043A05D0042AF9D200F8011B013AFBD19D
:1040FC006046704700F1010110F0030F11D010F869
:10410C00012B002A23D010F0030F0AD010F8012B3A
:10411C00002A1CD010F0030F03D010F8012B002A3A
:10412C0015D02DE970004FF001324FF0803350F86C
:10413C00044BA4EB020525EA04051D4000D1F6E76B
:10414C00A0F1040070BC10F8012B002AFBD1A0EBED
:10415C00010070472DE9F04F00230C46036089B035
:10416C0014F8011B03920746002900F0E582DFF8E2
:10417C00DC9507E03846FFF79BFE14F8011B00297D
:10418C0000F058812529F5D12246002612F8010BA2
:10419C00302800F29E801F280ED9A0F12003102B8E
:1041AC000AD8DFE803F0AC0909A8090909A4090930
:1041BC0009A0099C09098D002A2840F0FC80039B6A
:1041CC0010781D680433002D0393BCBF6D4246F07C
:1041DC001006A21C2E2800F004810021742800F087
:1041EC0092807A2800F08F806C2800F032814C2865
:1041FC0000F03581682800F0BE811446002800F0DC
:10420C008880A0F12503DAB2532A00F22B81532BBC
:10421C0000F22881DFE813F0EB01260126012601CC
:10422C00260126012601260126012601260126014A
:10423C00260126012601260126012601260126013A
:10424C00260126012601260126012601260126012A
:10425C00260126012601260126012601260126011A
:10426C00260126012601260126012601260126010A
:10427C00260126012601260126012601260182009F
:10428C0026012601260126012601260126012601EA
:10429C0026012601D601F60026012601260126015B
:1042AC00F6002601260126012601500248021302BF
:1042BC0026012601ED012601CB01260126018400F1
:1042CC0046F400761446224612F8010B30287FF68D
:1042DC0062AF5E286FD146F480561446F3E746F081
:1042EC0010061446EFE746F020061446EBE746F4BA
:1042FC0000461446E7E746F080061446E3E746F02E
:10430C0040061446DFE7144614F8010B00287FF42E
:10431C0078AF4FF0FF3009B0BDE8F08F46F400568F
:10432C0016F0800A06D043F2780A43F25803782834
:10433C0018BF9A4616F4807307BF06F48042B04645
:10434C0026F4007806F48042002A61D1039A18F012
:10435C00040F02F104060396126800F0A08092B2DA
:10436C00002B65D028F400785838202800F29D8066
:10437C00DFE810F073019B009B009B009B009B00EF
:10438C009B009B009B009B009B009B00D4009B0010
:10439C009B009B009B00D4009B009B009B009B0000
:1043AC009B00090173019B009B009B009B00D400A8
:1043BC009B009B007301A0F13004E3B2092B4FF07A
:1043CC0000053FF607AF12F8010B05EB850504EB72
:1043DC004505A0F13004E3B2092BF4D92E287FF463
:1043EC00FCAE10782A2840F07781039B507819682E
:1043FC00941C0433002903932246FFF6EFAE46F4D7
:10440C008076EBE646F4804806F480734FF0000AA1
:10441C00039A18F0040F02F104060396126830D0C8
:10442C0012B2002A31DA52424FF02D0A002B99D1E8
:10443C00012199E73868BB68002B3FF46CAF7A68B0
:10444C0082427FF668AF00221A54386809B0BDE882
:10445C00F08F144646F0010614F8010BCEE646F038
:10446C0001061446B54BD3F80080B8F1000F3FF4A9
:10447C0084AE009103A901912B4632463946C047C0
:10448C007BE618F0080FCCD0D2B218F0200F40F019
:10449C003E8118F0400F18BF4FF0200A60E718F06B
:1044AC00080F3FF45DAFD2B25AE74FF0FF3600234E
:1044BC0021EAE17BA5EB0B05BAF1FF0FA5EB030598
:1044CC0040F20481CAF307213846023DFFF7F0FCA5
:1044DC005FFA8AF13846FFF7EBFC40463A4629462C
:1044EC00FFF72AFD3A4659463020FFF7FBFC731CB8
:1044FC000AD001360DF1140A564416F8011D38463F
:10450C00FFF7D6FCB245F8D118F0100F3FF435AEDA
:10451C0029463A462020FFF7E5FC2EE61046002AF5
:10452C0000F0068108F4004C624600238C464FF0E4
:10453C002C0E114603F0030209B1032A14D01E46B7
:10454C00A9FB0032D20802EB820306F1200BA0EB90
:10455C004303EB44303309280BF80C3C06F1010300
:10456C0040F2D2801046E5E703F120026A445E1C5B
:10457C0002F80CECE4E71078682800F0D480541CA6
:10458C0046F004063AE61046002A00F0D1800DF100
:10459C00140C002302F007023032C0080CF8012B77
:1045AC001E46024601330028F4D1C91A80E716F4DE
:1045BC00807300F0AF8026F4007806F480424FF050
:1045CC00000AC1E6039B013D191D93F8008003917D
:1045DC003A4629463046FFF7AFFC41463846FFF7CE
:1045EC0067FCB3461BF0100F3FF4C7AD90E72521D5
:1045FC00C0E5039B524A181D0390D3F800A0BAF1F2
:10460C00000F08BF9246F205D04626F4007B5046B8
:10461C0040F18580FFF7FEFC0646AD1B3A46294665
:10462C005846FFF789FC002EDCD018F8011B3846E1
:10463C00FFF73EFCAAEB0803F342F6D1D2E7039B4B
:10464C001A1D039216F0800F1A6846F480780CBF7E
:10465C004FF0000A4FF0230A08211046002A67D0B9
:10466C0008F4005C634605AA8C460026A34619464E
:10467C0009E0344B000913F80E3002F8013B06F147
:10468C0001030DD01E4600F00F0E0029F1D12E4C67
:10469C00000914F80E3002F8013B06F10103F1D1C8
:1046AC0061465C46C91A03E716F0800F0CBF4FF049
:1046BC00000A4FF0300A3DE6039B3A68191D03913E
:1046CC001B6831074CBF1A701A6056E5BAF1000F1F
:1046DC003FF403AF013DFBE6A0F13004E3B2092B3C
:1046EC0002F101024FF000013FF689AE12F8010B06
:1046FC0001EB810104EB4101A0F13004E3B2092B81
:10470C00F4D946F4807669E56146C91AD0E64FF0D3
:10471C002B0A25E606F48042B0469A4614E6FFF7CB
:10472C00E9FC064679E7507846F00806941C65E5E6
:10473C0013464FF0FF36BBE608467CE62C03002000
:10474C00D8550000C8550000B8550000CDCCCCCCD5
:10475C00704700BF704700BF000000005FF800F01A
:04476C000D0000201C
:10477000486172647761726520696E697469616C01
:10478000697A65642E20436F6D70696C6564206181
:104790007420446563203230203230323520313885
:1047A0003A35363A343000007374617274696E675A
:1047B000206E6F6465202575202E2E2E0A000000C5
:1047C00072616E646F6D207365656420666F722020
:1047D0004D697865722069732025750A0000000014
:1047E0002121212050414E49433A206E6F646520BB
:1047F0006D617070696E67206E6F7420666F756E84
:104800006420666F72206E6F6465202575202121FB
:10481000210A00006D6170706564207068797369A9
:1048200063616C206E6F646520257520746F206C49
:104830006F676963616C2069642025750A00000058
:10484000707265706172696E6720726F756E642038
:104850002575202E2E2E0A007374617274696E679E
:1048600020726F756E64202575202E2E2E0A000092
:1048700073796E6368726F6E697A656420746F20F5
:10488000726F756E642025750A000000726F756E78
:1048900064206D69736D617463683A207265636545
:1048A00069766564202575203C3E206C6F63616CE1
:1048B0002025752120747279696E6720726573797D
:1048C0006E63202E2E2E0A00232049443A2575209F
:1048D00000000000726F756E643D25752072616E78
:1048E0006B3D2575206465633D25752021646563F6
:1048F0003D2575207765616B3D25752077726F6E5C
:10490000673D25750A00000072616E6B5F75705F10
:10491000736C6F743D5B000025753B0072616E6BBC
:104920005F75705F726F773D5B00000001020102EE
:1049300001020102633A5C75736572735C6C616BB2
:10494000736879615C6465736B746F705C6D6978B2
:1049500065725C6D697865725C7372635C677069BF
:104960005C61726D5C6E6F726469635C6E726635F9
:10497000323834305C726164696F2E63000000006D
:104980006368616E6E656C203E3D20313100000031
:104990006368616E6E656C203C3D2032360000001D
:1049A0006368616E6E656C203C3D20333900000009
:1049B00030000000433A2F55736572732F4C616BC2
:1049C000736879612F4465736B746F702F4D6978CC
:1049D00065722F4D697865722F7372632F677069E6
:1049E0002F61726D2F6E6F726469632F7063613116
:1049F000303035362F737464696F2E630000000009
:104A000073203E3D2028766F69642A2952414D5F0C
:104A10005345474D454E545F53544152542026262A
:104A20002073203C2028766F69642A2952414D5F0B
:104A30005345474D454E545F454E44000001010229
:104A40000102020301020203020303040102020342
:104A50000203030402030304030404050102020326
:104A60000203030402030304030404050203030412
:104A700003040405030404050405050601020203FA
:104A800002030304020303040304040502030304F2
:104A900003040405030404050405050602030304D6
:104AA00003040405030404050405050603040405C2
:104AB00004050506040505060506060701020203AE
:104AC00002030304020303040304040502030304B2
:104AD0000304040503040405040505060203030496
:104AE0000304040503040405040505060304040582
:104AF000040505060405050605060607020303046A
:104B00000304040503040405040505060304040561
:104B10000405050604050506050606070304040545
:104B20000405050604050506050606070405050631
:104B3000050606070506060706070708433A5C55FB
:104B4000736572735C4C616B736879615C44657307
:104B50006B746F705C4D697865725C4D69786572D5
:104B60005C7372635C6D697865725C6D697865729F
:104B70002E6300006E6F64655F6964203C2028200E
:104B80002873697A656F66286E6F64657329202FB4
:104B90002073697A656F6628286E6F646573295B78
:104BA000305D2929202B20282173697A656F6628BA
:104BB000737472756374205F5F6174747269627577
:104BC00074655F5F28287061636B65642929207BA9
:104BD00020696E74385F7420617373657274696FD5
:104BE0006E5F6661696C65645F5F696E76616C6952
:104BF000645F41525241595F53495A455F75736131
:104C00006765203A2038202D2039202A20212821AC
:104C10005F5F6275696C74696E5F74797065735FEC
:104C2000636F6D70617469626C655F702874797010
:104C3000656F66286E6F646573292C2074797065C2
:104C40006F662826286E6F646573295B305D29299D
:104C5000293B207D29292029000000006F6666730A
:104C600065746F66285061636B65742C20636F6494
:104C7000696E675F766563746F722900252D323522
:104C800073203D2025640A006F66667365746F6645
:104C9000285061636B65742C207061796C6F61645E
:104CA000290000006F66667365746F662850616343
:104CB0006B65742C20696E666F5F766563746F72C6
:104CC000290000004D585F4E554D5F4E4F444553EF
:104CD000000000004D585F47454E45524154494F32
:104CE0004E5F53495A4500004D585F5041594C4F53
:104CF00041445F53495A45004D585F534C4F545FF0
:104D00004C454E47544800004750495F4641535474
:104D10005F434C4F434B5F52415445004D585F52E7
:104D20004F554E445F4C454E475448004D585F49DF
:104D30004E49544941544F525F4944004D585F41D8
:104D400047455F544F5F494E434C5544455F505271
:104D50004F424142494C4954590000004D585F416F
:104D600047455F544F5F54585F50524F424142494C
:104D70004C495459000000004750495F5449434B87
:104D80005F4D535F544F5F48594252494432283176
:104D9000290000004750495F5449434B5F55535F1A
:104DA000544F5F485942524944322831290000008B
:104DB0004D585F434F4F5244494E415445445F5410
:104DC000580000004D585F484953544F52595F44B2
:104DD0004953434F564552595F4245484156494F02
:104DE000520000004D585F52455155455354000044
:104DF0004D585F524551554553545F4845555249AA
:104E000053544943000000004D585F534D415254E4
:104E10005F53485554444F574E0000004D585F5360
:104E20004D4152545F53485554444F574E5F4D4F78
:104E3000444500004D585F564552424F53455F531D
:104E40005441544953544943530000004D585F5056
:104E500048595F4D4F4445004D585F54585F505777
:104E6000525F44424D00000069203C2028202873F6
:104E7000697A656F66287061796C6F61645F6469D7
:104E800073747269627574696F6E29202F2073695B
:104E90007A656F6628287061796C6F61645F6469F8
:104EA00073747269627574696F6E295B305D29294C
:104EB000202B20282173697A656F662873747275B8
:104EC0006374205F5F6174747269627574655F5F9B
:104ED00028287061636B65642929207B20696E74C2
:104EE000385F7420617373657274696F6E5F666199
:104EF000696C65645F5F696E76616C69645F41527D
:104F00005241595F53495A455F7573616765203A4D
:104F10002038202D2039202A202128215F5F62752A
:104F2000696C74696E5F74797065735F636F6D70BF
:104F3000617469626C655F7028747970656F66284A
:104F40007061796C6F61645F6469737472696275B2
:104F500074696F6E292C20747970656F6628262815
:104F60007061796C6F61645F646973747269627592
:104F700074696F6E295B305D2929293B207D2929C1
:104F8000202900003020213D206D736700000000C3
:104F90004E554C4C20213D206D782E74785F726503
:104FA0007365727665000000737461746973746967
:104FB00063733A006E756D5F73656E743A20257584
:104FC0000A0000006E756D5F7265636569766564E1
:104FD0003A2025750A0000006E756D5F7265737961
:104FE0006E633A2025750A006E756D5F677269649D
:104FF0005F64726966745F6F766572666C6F773A2C
:105000002025750A000000006E756D5F72785F776D
:10501000696E646F775F6F766572666C6F773A2042
:1050200025750A006E756D5F72785F7375636365D1
:1050300073733A2025750A006E756D5F72785F6232
:10504000726F6B656E3A2025750A00006E756D5F94
:1050500072785F74696D656F75743A2025750A0002
:105060006E756D5F72785F646D615F74696D656F99
:1050700075743A2025750A006E756D5F72785F64ED
:105080006D615F6C6174653A2025750A000000004F
:105090006E756D5F72785F6C6174653A2025750A74
:1050A000000000006E756D5F74785F6C6174653A26
:1050B0002025750A000000006E756D5F74785F7AB8
:1050C00065726F5F7061636B65743A2025750A00C5
:1050D0006E756D5F74785F6669666F5F6C6174652D
:1050E0003A2025750A0000006E756D5F677269646D
:1050F0005F6C6174653A2025750A00006E756D5FFE
:1051000072785F736C6F745F6D69736D61746368DF
:105110003A2025750A0000006E756D5F72785F7128
:10512000756575655F6F766572666C6F773A202579
:10513000750A00006E756D5F72785F7175657565D3
:105140005F6F766572666C6F775F66756C6C5F72A9
:10515000616E6B3A2025750A000000006E756D5F68
:1051600072785F71756575655F70726F6365737373
:1051700065643A2025750A00736C6F745F66756C00
:105180006C5F72616E6B3A2025750A00736C6F74E8
:105190005F6465636F6465643A2025750A000000EA
:1051A000736C6F745F6F66663A2025750A000000A5
:1051B000646973636F766572795F657869745F732C
:1051C0006C6F743A2025750A0000000064697363EF
:1051D0006F766572795F64656E736974793A2025BC
:1051E000750A000077616B655F75705F736C6F7433
:1051F0003A2025750A000000726164696F5F6F6E66
:105200005F74696D653A20256C7575730A0000003E
:105210006C6F775F706F7765725F74696D653A2048
:10522000256C7575730A000009000000433A5C554F
:10523000736572735C4C616B736879615C44657310
:105240006B746F705C4D697865725C4D69786572DE
:105250005C7372635C6D697865725C6D69786572A8
:105260005F686973746F72792E6300006E6F646596
:105270005F6964203C204D585F4E554D5F4E4F4452
:10528000455300006C6973745F686561642D3E6E00
:10529000756D5F6E6F646573203E20300000000006
:1052A000433A5C55736572735C4C616B73687961EA
:1052B0005C4465736B746F705C4D697865725C4DAE
:1052C000697865725C7372635C6D697865725C6D38
:1052D000697865725F70726F63657373696E672E4C
:1052E0006300000064656E73697479203C20323578
:1052F00036000000547820776974686F75742064F4
:10530000617461202D3E206D757374206E6F742062
:1053100068617070656E0000433A5C557365727326
:105320005C4C616B736879615C4465736B746F701E
:105330005C4D697865725C4D697865725C73726307
:105340005C6D697865725C61726D76372D6D2F6D5D
:10535000656D786F722E68006E756D5F7372632075
:105360003C3D204D454D584F525F424C4F434B53AF
:10537000495A4500414253286D782E726571756512
:1053800073742E68656C705F696E64657829202D72
:10539000203120213D2069006D782E656D70747973
:1053A0005F726F77203E3D20266D782E6D6174729E
:1053B00069785B305D000000008000000040DA4B3F
:1053C0000051E353BC550557F757B0584359BA59E4
:1053D0001C5A6F5AB65AF35A433A5C557365727346
:1053E0005C4C616B736879615C4465736B746F705E
:1053F0005C4D697865725C4D697865725C73726347
:105400005C6D697865725C6E726635323834305C1A
:105410006D697865725F7472616E73706F72742EED
:10542000630000004E554C4C20213D20707300005D
:105430004D585F5048595F4D4F4445203D3D2067D2
:1054400070695F726164696F5F6765745F6D6F64D7
:10545000652829004D41585F50524F5041474154F3
:10546000494F4E5F44454C415900000052585F5728
:10547000494E444F575F494E4352454D454E5400A7
:1054800052585F57494E444F575F4D494E000000F8
:1054900052585F57494E444F575F4D4158000000E6
:1054A000475249445F44524946545F46494C54452B
:1054B000525F444956000000475249445F544943F3
:1054C0004B5F5550444154455F444956000000002D
:1054D000475249445F44524946545F4D4158000089
:1054E00054585F4F46465345545F46494C544552C5
:1054F0005F4449560000000054585F4F46465345EC
:10550000545F4D415800000044524946545F544F87
:105510004C4552414E434500475249445F544F5F0A
:105520004556454E545F4F464653455400000000D3
:105530005041434B45545F4149525F54494D4500EA
:1055400052585F57494E444F57202F20494E4352DF
:10555000454D454E54000000252D323573203D2029
:1055600025750A0061697220627974657320286567
:1055700078636C2E20707265202B20616472290084
:105580006D696E2E20736C6F74206C656E67746825
:1055900000000000000102030304040505060606DE
:1055A0000606070707070707070707070707080093
:1055B0003F201008040201003031323334353637D1
:1055C0003839616263646566303132333435363779
:0F55D0003839414243444546286E756C6C2900BA
:1055E0000090D00300000000010000002DE9F01F32
:1055F00091E8E01FD0F800105CF8044B5BF8043B26
:1056000081EA040181EA03015AF8044B59F8043B8A
:1056100081EA040181EA030158F8044B57F8043B7E
:1056200081EA040181EA030156F8044B55F8043B72
:1056300081EA040181EA030140F8041BB2F104028B
:0A5640003FF7D8AFBDE8F01F704738
:04000003000004B144
:00000001FF
